{
  "contractName": "SupplyChainManagmentSmartContract",
  "abi": [
    {
      "inputs": [
        {
          "internalType": "uint256",
          "name": "",
          "type": "uint256"
        }
      ],
      "name": "actors",
      "outputs": [
        {
          "internalType": "address",
          "name": "actorAddress",
          "type": "address"
        },
        {
          "internalType": "string",
          "name": "role",
          "type": "string"
        }
      ],
      "stateMutability": "view",
      "type": "function",
      "constant": true
    },
    {
      "inputs": [],
      "name": "escrowId",
      "outputs": [
        {
          "internalType": "uint256",
          "name": "",
          "type": "uint256"
        }
      ],
      "stateMutability": "view",
      "type": "function",
      "constant": true
    },
    {
      "inputs": [
        {
          "internalType": "uint256",
          "name": "",
          "type": "uint256"
        }
      ],
      "name": "escrows",
      "outputs": [
        {
          "internalType": "address",
          "name": "buyer",
          "type": "address"
        },
        {
          "internalType": "address",
          "name": "seller",
          "type": "address"
        },
        {
          "internalType": "uint256",
          "name": "amount",
          "type": "uint256"
        },
        {
          "internalType": "bool",
          "name": "isReleased",
          "type": "bool"
        }
      ],
      "stateMutability": "view",
      "type": "function",
      "constant": true
    },
    {
      "inputs": [],
      "name": "productId",
      "outputs": [
        {
          "internalType": "uint256",
          "name": "",
          "type": "uint256"
        }
      ],
      "stateMutability": "view",
      "type": "function",
      "constant": true
    },
    {
      "inputs": [
        {
          "internalType": "uint256",
          "name": "",
          "type": "uint256"
        },
        {
          "internalType": "uint256",
          "name": "",
          "type": "uint256"
        }
      ],
      "name": "productQualityChecks",
      "outputs": [
        {
          "internalType": "uint256",
          "name": "id",
          "type": "uint256"
        },
        {
          "internalType": "uint256",
          "name": "productId",
          "type": "uint256"
        },
        {
          "internalType": "uint256",
          "name": "timestamp",
          "type": "uint256"
        },
        {
          "internalType": "uint256",
          "name": "moistureContent",
          "type": "uint256"
        },
        {
          "internalType": "uint256",
          "name": "beanSize",
          "type": "uint256"
        }
      ],
      "stateMutability": "view",
      "type": "function",
      "constant": true
    },
    {
      "inputs": [
        {
          "internalType": "uint256",
          "name": "",
          "type": "uint256"
        }
      ],
      "name": "products",
      "outputs": [
        {
          "internalType": "uint256",
          "name": "id",
          "type": "uint256"
        },
        {
          "internalType": "string",
          "name": "name",
          "type": "string"
        },
        {
          "internalType": "uint256",
          "name": "quantity",
          "type": "uint256"
        },
        {
          "internalType": "string",
          "name": "organicCertification",
          "type": "string"
        },
        {
          "internalType": "string",
          "name": "geolocation",
          "type": "string"
        },
        {
          "internalType": "enum SupplyChainManagmentSmartContract.ProductStatus",
          "name": "status",
          "type": "uint8"
        },
        {
          "internalType": "uint256",
          "name": "harvestDate",
          "type": "uint256"
        }
      ],
      "stateMutability": "view",
      "type": "function",
      "constant": true
    },
    {
      "inputs": [],
      "name": "transactionId",
      "outputs": [
        {
          "internalType": "uint256",
          "name": "",
          "type": "uint256"
        }
      ],
      "stateMutability": "view",
      "type": "function",
      "constant": true
    },
    {
      "inputs": [
        {
          "internalType": "uint256",
          "name": "",
          "type": "uint256"
        }
      ],
      "name": "transactions",
      "outputs": [
        {
          "internalType": "uint256",
          "name": "id",
          "type": "uint256"
        },
        {
          "internalType": "uint256",
          "name": "productId",
          "type": "uint256"
        },
        {
          "internalType": "enum SupplyChainManagmentSmartContract.TransactionType",
          "name": "transactionType",
          "type": "uint8"
        },
        {
          "internalType": "uint256",
          "name": "timestamp",
          "type": "uint256"
        },
        {
          "internalType": "string",
          "name": "location",
          "type": "string"
        },
        {
          "internalType": "address",
          "name": "actorAddress",
          "type": "address"
        }
      ],
      "stateMutability": "view",
      "type": "function",
      "constant": true
    },
    {
      "inputs": [
        {
          "internalType": "string",
          "name": "_name",
          "type": "string"
        },
        {
          "internalType": "uint256",
          "name": "_quantity",
          "type": "uint256"
        },
        {
          "internalType": "string",
          "name": "_organicCertification",
          "type": "string"
        },
        {
          "internalType": "string",
          "name": "_geolocation",
          "type": "string"
        },
        {
          "internalType": "uint256",
          "name": "_harvestDate",
          "type": "uint256"
        }
      ],
      "name": "registerProduct",
      "outputs": [
        {
          "internalType": "uint256",
          "name": "",
          "type": "uint256"
        }
      ],
      "stateMutability": "nonpayable",
      "type": "function"
    },
    {
      "inputs": [
        {
          "internalType": "uint256",
          "name": "_productId",
          "type": "uint256"
        }
      ],
      "name": "getProductById",
      "outputs": [
        {
          "components": [
            {
              "internalType": "uint256",
              "name": "id",
              "type": "uint256"
            },
            {
              "internalType": "string",
              "name": "name",
              "type": "string"
            },
            {
              "internalType": "uint256",
              "name": "quantity",
              "type": "uint256"
            },
            {
              "internalType": "string",
              "name": "organicCertification",
              "type": "string"
            },
            {
              "internalType": "string",
              "name": "geolocation",
              "type": "string"
            },
            {
              "internalType": "enum SupplyChainManagmentSmartContract.ProductStatus",
              "name": "status",
              "type": "uint8"
            },
            {
              "internalType": "uint256",
              "name": "harvestDate",
              "type": "uint256"
            }
          ],
          "internalType": "struct SupplyChainManagmentSmartContract.Product",
          "name": "",
          "type": "tuple"
        }
      ],
      "stateMutability": "view",
      "type": "function",
      "constant": true
    },
    {
      "inputs": [
        {
          "internalType": "uint256",
          "name": "_productId",
          "type": "uint256"
        },
        {
          "internalType": "enum SupplyChainManagmentSmartContract.TransactionType",
          "name": "_transactionType",
          "type": "uint8"
        },
        {
          "internalType": "string",
          "name": "_location",
          "type": "string"
        }
      ],
      "name": "recordTransaction",
      "outputs": [],
      "stateMutability": "nonpayable",
      "type": "function"
    },
    {
      "inputs": [
        {
          "internalType": "uint256",
          "name": "_productId",
          "type": "uint256"
        },
        {
          "internalType": "uint256",
          "name": "_moistureContent",
          "type": "uint256"
        },
        {
          "internalType": "uint256",
          "name": "_beanSize",
          "type": "uint256"
        }
      ],
      "name": "recordQualityCheck",
      "outputs": [],
      "stateMutability": "nonpayable",
      "type": "function"
    },
    {
      "inputs": [
        {
          "internalType": "address",
          "name": "_buyer",
          "type": "address"
        },
        {
          "internalType": "uint256",
          "name": "_amount",
          "type": "uint256"
        }
      ],
      "name": "createEscrow",
      "outputs": [
        {
          "internalType": "uint256",
          "name": "",
          "type": "uint256"
        }
      ],
      "stateMutability": "payable",
      "type": "function",
      "payable": true
    },
    {
      "inputs": [
        {
          "internalType": "uint256",
          "name": "_escrowId",
          "type": "uint256"
        }
      ],
      "name": "releaseEscrow",
      "outputs": [],
      "stateMutability": "nonpayable",
      "type": "function"
    }
  ],
  "bytecode": "0x60806040525f6003555f6004555f60075534801561001b575f80fd5b50611efe806100295f395ff3fe6080604052600436106100dc575f3560e01c80637e2f42e71161007e5780639ace38c2116100585780639ace38c2146102ee578063c5ce39111461032f578063c9dcd33d14610359578063ed65316414610395576100dc565b80637e2f42e71461025f5780638a2c57161461028957806393c0e83a146102b1576100dc565b80634614874e116100ba5780634614874e1461019b57806351abc1db146101cb5780635753d989146101f35780637acc0b201461021d576100dc565b8063012f52ee146100e0578063301ab6001461011f5780633f70c2b41461015f575b5f80fd5b3480156100eb575f80fd5b5061010660048036038101906101019190611176565b6103bd565b6040516101169493929190611209565b60405180910390f35b34801561012a575f80fd5b506101456004803603810190610140919061124c565b610433565b60405161015695949392919061128a565b60405180910390f35b34801561016a575f80fd5b5061018560048036038101906101809190611176565b61047f565b604051610192919061148e565b60405180910390f35b6101b560048036038101906101b091906114d8565b6106b0565b6040516101c29190611516565b60405180910390f35b3480156101d6575f80fd5b506101f160048036038101906101ec919061167e565b61083e565b005b3480156101fe575f80fd5b506102076109f3565b6040516102149190611516565b60405180910390f35b348015610228575f80fd5b50610243600480360381019061023e9190611176565b6109f9565b6040516102569796959493929190611741565b60405180910390f35b34801561026a575f80fd5b50610273610bd4565b6040516102809190611516565b60405180910390f35b348015610294575f80fd5b506102af60048036038101906102aa91906117c3565b610bda565b005b3480156102bc575f80fd5b506102d760048036038101906102d29190611176565b610c88565b6040516102e5929190611813565b60405180910390f35b3480156102f9575f80fd5b50610314600480360381019061030f9190611176565b610d5c565b60405161032696959493929190611887565b60405180910390f35b34801561033a575f80fd5b50610343610e45565b6040516103509190611516565b60405180910390f35b348015610364575f80fd5b5061037f600480360381019061037a91906118ed565b610e4b565b60405161038c9190611516565b60405180910390f35b3480156103a0575f80fd5b506103bb60048036038101906103b69190611176565b610f66565b005b6006602052805f5260405f205f91509050805f015f9054906101000a900473ffffffffffffffffffffffffffffffffffffffff1690806001015f9054906101000a900473ffffffffffffffffffffffffffffffffffffffff1690806002015490806003015f9054906101000a900460ff16905084565b6005602052815f5260405f20818154811061044c575f80fd5b905f5260205f2090600502015f9150915050805f0154908060010154908060020154908060030154908060040154905085565b6104876110e7565b5f808381526020019081526020015f206040518060e00160405290815f82015481526020016001820180546104bb906119e5565b80601f01602080910402602001604051908101604052809291908181526020018280546104e7906119e5565b80156105325780601f1061050957610100808354040283529160200191610532565b820191905f5260205f20905b81548152906001019060200180831161051557829003601f168201915b5050505050815260200160028201548152602001600382018054610555906119e5565b80601f0160208091040260200160405190810160405280929190818152602001828054610581906119e5565b80156105cc5780601f106105a3576101008083540402835291602001916105cc565b820191905f5260205f20905b8154815290600101906020018083116105af57829003601f168201915b505050505081526020016004820180546105e5906119e5565b80601f0160208091040260200160405190810160405280929190818152602001828054610611906119e5565b801561065c5780601f106106335761010080835404028352916020019161065c565b820191905f5260205f20905b81548152906001019060200180831161063f57829003601f168201915b50505050508152602001600582015f9054906101000a900460ff16600481111561068957610688611374565b5b600481111561069b5761069a611374565b5b81526020016006820154815250509050919050565b5f8134146106f3576040517f08c379a00000000000000000000000000000000000000000000000000000000081526004016106ea90611a5f565b60405180910390fd5b5f60405180608001604052808573ffffffffffffffffffffffffffffffffffffffff1681526020013373ffffffffffffffffffffffffffffffffffffffff1681526020018481526020015f151581525090508060065f60075481526020019081526020015f205f820151815f015f6101000a81548173ffffffffffffffffffffffffffffffffffffffff021916908373ffffffffffffffffffffffffffffffffffffffff1602179055506020820151816001015f6101000a81548173ffffffffffffffffffffffffffffffffffffffff021916908373ffffffffffffffffffffffffffffffffffffffff160217905550604082015181600201556060820151816003015f6101000a81548160ff02191690831515021790555090505060075f81548092919061082190611aaa565b919050555060016007546108359190611af1565b91505092915050565b60048081111561085157610850611374565b5b5f808581526020019081526020015f206005015f9054906101000a900460ff16600481111561088357610882611374565b5b036108c3576040517f08c379a00000000000000000000000000000000000000000000000000000000081526004016108ba90611b6e565b60405180910390fd5b6040518060c0016040528060045481526020018481526020018360048111156108ef576108ee611374565b5b81526020014281526020018281526020013373ffffffffffffffffffffffffffffffffffffffff1681525060015f60045481526020019081526020015f205f820151815f0155602082015181600101556040820151816002015f6101000a81548160ff0219169083600481111561096957610968611374565b5b021790555060608201518160030155608082015181600401908161098d9190611d29565b5060a0820151816005015f6101000a81548173ffffffffffffffffffffffffffffffffffffffff021916908373ffffffffffffffffffffffffffffffffffffffff16021790555090505060045f8154809291906109e990611aaa565b9190505550505050565b60075481565b5f602052805f5260405f205f91509050805f015490806001018054610a1d906119e5565b80601f0160208091040260200160405190810160405280929190818152602001828054610a49906119e5565b8015610a945780601f10610a6b57610100808354040283529160200191610a94565b820191905f5260205f20905b815481529060010190602001808311610a7757829003601f168201915b505050505090806002015490806003018054610aaf906119e5565b80601f0160208091040260200160405190810160405280929190818152602001828054610adb906119e5565b8015610b265780601f10610afd57610100808354040283529160200191610b26565b820191905f5260205f20905b815481529060010190602001808311610b0957829003601f168201915b505050505090806004018054610b3b906119e5565b80601f0160208091040260200160405190810160405280929190818152602001828054610b67906119e5565b8015610bb25780601f10610b8957610100808354040283529160200191610bb2565b820191905f5260205f20905b815481529060010190602001808311610b9557829003601f168201915b505050505090806005015f9054906101000a900460ff16908060060154905087565b60045481565b5f6040518060a0016040528060055f8781526020019081526020015f2080549050815260200185815260200142815260200184815260200183815250905060055f8581526020019081526020015f2081908060018154018082558091505060019003905f5260205f2090600502015f909190919091505f820151815f015560208201518160010155604082015181600201556060820151816003015560808201518160040155505050505050565b60028181548110610c97575f80fd5b905f5260205f2090600202015f91509050805f015f9054906101000a900473ffffffffffffffffffffffffffffffffffffffff1690806001018054610cdb906119e5565b80601f0160208091040260200160405190810160405280929190818152602001828054610d07906119e5565b8015610d525780601f10610d2957610100808354040283529160200191610d52565b820191905f5260205f20905b815481529060010190602001808311610d3557829003601f168201915b5050505050905082565b6001602052805f5260405f205f91509050805f015490806001015490806002015f9054906101000a900460ff1690806003015490806004018054610d9f906119e5565b80601f0160208091040260200160405190810160405280929190818152602001828054610dcb906119e5565b8015610e165780601f10610ded57610100808354040283529160200191610e16565b820191905f5260205f20905b815481529060010190602001808311610df957829003601f168201915b505050505090806005015f9054906101000a900473ffffffffffffffffffffffffffffffffffffffff16905086565b60035481565b5f6040518060e0016040528060035481526020018781526020018681526020018581526020018481526020015f6004811115610e8a57610e89611374565b5b8152602001838152505f8060035481526020019081526020015f205f820151815f01556020820151816001019081610ec29190611d29565b50604082015181600201556060820151816003019081610ee29190611d29565b506080820151816004019081610ef89190611d29565b5060a0820151816005015f6101000a81548160ff02191690836004811115610f2357610f22611374565b5b021790555060c0820151816006015590505060035f815480929190610f4790611aaa565b91905055506001600354610f5b9190611af1565b905095945050505050565b5f60065f8381526020019081526020015f2090503373ffffffffffffffffffffffffffffffffffffffff16816001015f9054906101000a900473ffffffffffffffffffffffffffffffffffffffff1673ffffffffffffffffffffffffffffffffffffffff161461100b576040517f08c379a000000000000000000000000000000000000000000000000000000000815260040161100290611e42565b60405180910390fd5b806003015f9054906101000a900460ff161561105c576040517f08c379a000000000000000000000000000000000000000000000000000000000815260040161105390611eaa565b60405180910390fd5b806001015f9054906101000a900473ffffffffffffffffffffffffffffffffffffffff1673ffffffffffffffffffffffffffffffffffffffff166108fc826002015490811502906040515f60405180830381858888f193505050501580156110c6573d5f803e3d5ffd5b506001816003015f6101000a81548160ff0219169083151502179055505050565b6040518060e001604052805f8152602001606081526020015f815260200160608152602001606081526020015f600481111561112657611125611374565b5b81526020015f81525090565b5f604051905090565b5f80fd5b5f80fd5b5f819050919050565b61115581611143565b811461115f575f80fd5b50565b5f813590506111708161114c565b92915050565b5f6020828403121561118b5761118a61113b565b5b5f61119884828501611162565b91505092915050565b5f73ffffffffffffffffffffffffffffffffffffffff82169050919050565b5f6111ca826111a1565b9050919050565b6111da816111c0565b82525050565b6111e981611143565b82525050565b5f8115159050919050565b611203816111ef565b82525050565b5f60808201905061121c5f8301876111d1565b61122960208301866111d1565b61123660408301856111e0565b61124360608301846111fa565b95945050505050565b5f80604083850312156112625761126161113b565b5b5f61126f85828601611162565b925050602061128085828601611162565b9150509250929050565b5f60a08201905061129d5f8301886111e0565b6112aa60208301876111e0565b6112b760408301866111e0565b6112c460608301856111e0565b6112d160808301846111e0565b9695505050505050565b6112e481611143565b82525050565b5f81519050919050565b5f82825260208201905092915050565b5f5b83811015611321578082015181840152602081019050611306565b5f8484015250505050565b5f601f19601f8301169050919050565b5f611346826112ea565b61135081856112f4565b9350611360818560208601611304565b6113698161132c565b840191505092915050565b7f4e487b71000000000000000000000000000000000000000000000000000000005f52602160045260245ffd5b600581106113b2576113b1611374565b5b50565b5f8190506113c2826113a1565b919050565b5f6113d1826113b5565b9050919050565b6113e1816113c7565b82525050565b5f60e083015f8301516113fc5f8601826112db565b5060208301518482036020860152611414828261133c565b915050604083015161142960408601826112db565b5060608301518482036060860152611441828261133c565b9150506080830151848203608086015261145b828261133c565b91505060a083015161147060a08601826113d8565b5060c083015161148360c08601826112db565b508091505092915050565b5f6020820190508181035f8301526114a681846113e7565b905092915050565b6114b7816111c0565b81146114c1575f80fd5b50565b5f813590506114d2816114ae565b92915050565b5f80604083850312156114ee576114ed61113b565b5b5f6114fb858286016114c4565b925050602061150c85828601611162565b9150509250929050565b5f6020820190506115295f8301846111e0565b92915050565b6005811061153b575f80fd5b50565b5f8135905061154c8161152f565b92915050565b5f80fd5b5f80fd5b7f4e487b71000000000000000000000000000000000000000000000000000000005f52604160045260245ffd5b6115908261132c565b810181811067ffffffffffffffff821117156115af576115ae61155a565b5b80604052505050565b5f6115c1611132565b90506115cd8282611587565b919050565b5f67ffffffffffffffff8211156115ec576115eb61155a565b5b6115f58261132c565b9050602081019050919050565b828183375f83830152505050565b5f61162261161d846115d2565b6115b8565b90508281526020810184848401111561163e5761163d611556565b5b611649848285611602565b509392505050565b5f82601f83011261166557611664611552565b5b8135611675848260208601611610565b91505092915050565b5f805f606084860312156116955761169461113b565b5b5f6116a286828701611162565b93505060206116b38682870161153e565b925050604084013567ffffffffffffffff8111156116d4576116d361113f565b5b6116e086828701611651565b9150509250925092565b5f82825260208201905092915050565b5f611704826112ea565b61170e81856116ea565b935061171e818560208601611304565b6117278161132c565b840191505092915050565b61173b816113c7565b82525050565b5f60e0820190506117545f83018a6111e0565b818103602083015261176681896116fa565b905061177560408301886111e0565b818103606083015261178781876116fa565b9050818103608083015261179b81866116fa565b90506117aa60a0830185611732565b6117b760c08301846111e0565b98975050505050505050565b5f805f606084860312156117da576117d961113b565b5b5f6117e786828701611162565b93505060206117f886828701611162565b925050604061180986828701611162565b9150509250925092565b5f6040820190506118265f8301856111d1565b818103602083015261183881846116fa565b90509392505050565b6005811061185257611851611374565b5b50565b5f81905061186282611841565b919050565b5f61187182611855565b9050919050565b61188181611867565b82525050565b5f60c08201905061189a5f8301896111e0565b6118a760208301886111e0565b6118b46040830187611878565b6118c160608301866111e0565b81810360808301526118d381856116fa565b90506118e260a08301846111d1565b979650505050505050565b5f805f805f60a086880312156119065761190561113b565b5b5f86013567ffffffffffffffff8111156119235761192261113f565b5b61192f88828901611651565b955050602061194088828901611162565b945050604086013567ffffffffffffffff8111156119615761196061113f565b5b61196d88828901611651565b935050606086013567ffffffffffffffff81111561198e5761198d61113f565b5b61199a88828901611651565b92505060806119ab88828901611162565b9150509295509295909350565b7f4e487b71000000000000000000000000000000000000000000000000000000005f52602260045260245ffd5b5f60028204905060018216806119fc57607f821691505b602082108103611a0f57611a0e6119b8565b5b50919050565b7f496e73756666696369656e742066756e647300000000000000000000000000005f82015250565b5f611a496012836116ea565b9150611a5482611a15565b602082019050919050565b5f6020820190508181035f830152611a7681611a3d565b9050919050565b7f4e487b71000000000000000000000000000000000000000000000000000000005f52601160045260245ffd5b5f611ab482611143565b91507fffffffffffffffffffffffffffffffffffffffffffffffffffffffffffffffff8203611ae657611ae5611a7d565b5b600182019050919050565b5f611afb82611143565b9150611b0683611143565b9250828203905081811115611b1e57611b1d611a7d565b5b92915050565b7f50726f6475637420697320616c7265616479206f6e2073616c650000000000005f82015250565b5f611b58601a836116ea565b9150611b6382611b24565b602082019050919050565b5f6020820190508181035f830152611b8581611b4c565b9050919050565b5f819050815f5260205f209050919050565b5f6020601f8301049050919050565b5f82821b905092915050565b5f60088302611be87fffffffffffffffffffffffffffffffffffffffffffffffffffffffffffffffff82611bad565b611bf28683611bad565b95508019841693508086168417925050509392505050565b5f819050919050565b5f611c2d611c28611c2384611143565b611c0a565b611143565b9050919050565b5f819050919050565b611c4683611c13565b611c5a611c5282611c34565b848454611bb9565b825550505050565b5f90565b611c6e611c62565b611c79818484611c3d565b505050565b5b81811015611c9c57611c915f82611c66565b600181019050611c7f565b5050565b601f821115611ce157611cb281611b8c565b611cbb84611b9e565b81016020851015611cca578190505b611cde611cd685611b9e565b830182611c7e565b50505b505050565b5f82821c905092915050565b5f611d015f1984600802611ce6565b1980831691505092915050565b5f611d198383611cf2565b9150826002028217905092915050565b611d32826112ea565b67ffffffffffffffff811115611d4b57611d4a61155a565b5b611d5582546119e5565b611d60828285611ca0565b5f60209050601f831160018114611d91575f8415611d7f578287015190505b611d898582611d0e565b865550611df0565b601f198416611d9f86611b8c565b5f5b82811015611dc657848901518255600182019150602085019450602081019050611da1565b86831015611de35784890151611ddf601f891682611cf2565b8355505b6001600288020188555050505b505050505050565b7f4f6e6c792073656c6c65722063616e2072656c6561736520657363726f7700005f82015250565b5f611e2c601e836116ea565b9150611e3782611df8565b602082019050919050565b5f6020820190508181035f830152611e5981611e20565b9050919050565b7f457363726f7720616c72656164792072656c65617365640000000000000000005f82015250565b5f611e946017836116ea565b9150611e9f82611e60565b602082019050919050565b5f6020820190508181035f830152611ec181611e88565b905091905056fea2646970667358221220fc1d6b1107d9943863fee22ec411f0e63a6f35a84a89e9acfc610b186d7e32d064736f6c63430008150033",
  "immutableReferences": {},
  "source": "// SPDX-License-Identifier: MIT\r\npragma solidity ^0.8.0;\r\n\r\ncontract SupplyChainManagmentSmartContract {\r\n    struct Product {\r\n        uint256 id;\r\n        string name;\r\n        uint256 quantity;\r\n        string organicCertification;\r\n        string geolocation;\r\n        ProductStatus status;\r\n        uint256 harvestDate;\r\n    }\r\n\r\n    struct Transaction {\r\n        uint256 id;\r\n        uint256 productId;\r\n        TransactionType transactionType;\r\n        uint256 timestamp;\r\n        string location;\r\n        address actorAddress; // Address of the actor involved in the transaction\r\n    }\r\n\r\n    struct Actor {\r\n        address actorAddress;\r\n        string role;\r\n    }\r\n\r\n    mapping(uint256 => Product) public products;\r\n    mapping(uint256 => Transaction) public transactions;\r\n    Actor[] public actors;\r\n\r\n    enum TransactionType {\r\n        Harvest,\r\n        Transport,\r\n        Roast,\r\n        Package,\r\n        Retail\r\n    }\r\n\r\n    enum ProductStatus {\r\n        InFarm,\r\n        InTransit,\r\n        Roasted,\r\n        Packaged,\r\n        OnSale\r\n    }\r\n\r\n    enum ActorRole {\r\n        Farmer,\r\n        Transporter,\r\n        Roaster,\r\n        Retailer\r\n    }\r\n\r\n    uint256 public productId = 0;\r\n    function registerProduct(\r\n        string memory _name,\r\n        uint256 _quantity,\r\n        string memory _organicCertification,\r\n        string memory _geolocation,\r\n        uint256 _harvestDate\r\n    ) public returns (uint256) {\r\n        products[productId] = Product({\r\n            id: productId,\r\n            name: _name,\r\n            quantity: _quantity,\r\n            organicCertification: _organicCertification,\r\n            geolocation: _geolocation,\r\n            status: ProductStatus.InFarm,\r\n            harvestDate: _harvestDate\r\n        });\r\n\r\n        productId++;\r\n        return productId - 1; // Return the product ID\r\n    }\r\n\r\n    function getProductById(uint256 _productId) public view returns (Product memory) {\r\n        return products[_productId];\r\n    }\r\n\r\n    uint256 public transactionId = 0;\r\n    function recordTransaction(\r\n    uint256 _productId,\r\n    TransactionType _transactionType,\r\n    string memory _location\r\n    ) public {\r\n        require(products[_productId].status != ProductStatus.OnSale, \"Product is already on sale\");\r\n\r\n        transactions[transactionId] = Transaction({\r\n            id: transactionId,\r\n            productId: _productId,\r\n            transactionType: _transactionType,\r\n            timestamp: block.timestamp,\r\n            location: _location,\r\n            actorAddress: msg.sender\r\n        });\r\n\r\n        transactionId++;\r\n    }\r\n\r\n    struct QualityCheck {\r\n        uint256 id;\r\n        uint256 productId;\r\n        uint256 timestamp;\r\n        uint256 moistureContent;\r\n        uint256 beanSize;\r\n    }\r\n\r\n    mapping(uint256 => QualityCheck[]) public productQualityChecks;\r\n\r\n    function recordQualityCheck(\r\n        uint256 _productId,\r\n        uint256 _moistureContent,\r\n        uint256 _beanSize\r\n    ) public {\r\n        QualityCheck memory newCheck = QualityCheck({\r\n            id: productQualityChecks[_productId].length,\r\n            productId: _productId,\r\n            timestamp: block.timestamp,\r\n            moistureContent: _moistureContent,\r\n            beanSize: _beanSize\r\n        });\r\n\r\n        productQualityChecks[_productId].push(newCheck);\r\n    }\r\n\r\n    struct Escrow {\r\n        address buyer;\r\n        address seller;\r\n        uint256 amount;\r\n        bool isReleased;\r\n    }\r\n\r\n    mapping(uint256 => Escrow) public escrows;\r\n    uint256 public escrowId = 0;\r\n\r\n    function createEscrow(address _buyer, uint256 _amount) public payable returns (uint256) {\r\n        require(msg.value == _amount, \"Insufficient funds\");\r\n\r\n        Escrow memory newEscrow = Escrow({\r\n            buyer: _buyer,\r\n            seller: msg.sender,\r\n            amount: _amount,\r\n            isReleased: false\r\n        });\r\n\r\n        escrows[escrowId] = newEscrow;\r\n        escrowId++;\r\n\r\n        return escrowId - 1;\r\n    }\r\n\r\n    function releaseEscrow(uint256 _escrowId) public {\r\n        Escrow storage escrow = escrows[_escrowId];\r\n        require(escrow.seller == msg.sender, \"Only seller can release escrow\");\r\n        require(!escrow.isReleased, \"Escrow already released\");\r\n\r\n        payable(escrow.seller).transfer(escrow.amount);\r\n        escrow.isReleased = true;\r\n    }\r\n}",
  "sourcePath": "C:\\Users\\stmih\\source\\repos\\Ethereum-network\\contracts\\SupplyChainManagmentSmartContract.sol",
  "compiler": {
    "name": "solc",
    "version": "0.8.21+commit.d9974bed.Emscripten.clang"
  },
  "schemaVersion": "3.4.16",
  "updatedAt": "2024-07-28T17:28:17.679Z",
  "networkType": "ethereum",
  "devdoc": {
    "kind": "dev",
    "methods": {},
    "version": 1
  },
  "userdoc": {
    "kind": "user",
    "methods": {},
    "version": 1
  }
}