{
  "contractName": "SupplyChainManagmentSmartContract",
  "abi": [
    {
      "inputs": [
        {
          "internalType": "uint256",
          "name": "_contractVersion",
          "type": "uint256"
        }
      ],
      "stateMutability": "nonpayable",
      "type": "constructor"
    },
    {
      "inputs": [
        {
          "internalType": "uint256",
          "name": "",
          "type": "uint256"
        }
      ],
      "name": "actors",
      "outputs": [
        {
          "internalType": "address",
          "name": "actorAddress",
          "type": "address"
        },
        {
          "internalType": "string",
          "name": "role",
          "type": "string"
        }
      ],
      "stateMutability": "view",
      "type": "function",
      "constant": true
    },
    {
      "inputs": [],
      "name": "contractVersion",
      "outputs": [
        {
          "internalType": "uint256",
          "name": "",
          "type": "uint256"
        }
      ],
      "stateMutability": "view",
      "type": "function",
      "constant": true
    },
    {
      "inputs": [],
      "name": "escrowId",
      "outputs": [
        {
          "internalType": "uint256",
          "name": "",
          "type": "uint256"
        }
      ],
      "stateMutability": "view",
      "type": "function",
      "constant": true
    },
    {
      "inputs": [
        {
          "internalType": "uint256",
          "name": "",
          "type": "uint256"
        }
      ],
      "name": "escrows",
      "outputs": [
        {
          "internalType": "address",
          "name": "buyer",
          "type": "address"
        },
        {
          "internalType": "address",
          "name": "seller",
          "type": "address"
        },
        {
          "internalType": "uint256",
          "name": "amount",
          "type": "uint256"
        },
        {
          "internalType": "bool",
          "name": "isReleased",
          "type": "bool"
        }
      ],
      "stateMutability": "view",
      "type": "function",
      "constant": true
    },
    {
      "inputs": [],
      "name": "productCount",
      "outputs": [
        {
          "internalType": "uint256",
          "name": "",
          "type": "uint256"
        }
      ],
      "stateMutability": "view",
      "type": "function",
      "constant": true
    },
    {
      "inputs": [],
      "name": "productId",
      "outputs": [
        {
          "internalType": "uint256",
          "name": "",
          "type": "uint256"
        }
      ],
      "stateMutability": "view",
      "type": "function",
      "constant": true
    },
    {
      "inputs": [
        {
          "internalType": "uint256",
          "name": "",
          "type": "uint256"
        },
        {
          "internalType": "uint256",
          "name": "",
          "type": "uint256"
        }
      ],
      "name": "productQualityChecks",
      "outputs": [
        {
          "internalType": "uint256",
          "name": "id",
          "type": "uint256"
        },
        {
          "internalType": "uint256",
          "name": "productId",
          "type": "uint256"
        },
        {
          "internalType": "uint256",
          "name": "timestamp",
          "type": "uint256"
        },
        {
          "internalType": "uint256",
          "name": "moistureContent",
          "type": "uint256"
        },
        {
          "internalType": "uint256",
          "name": "beanSize",
          "type": "uint256"
        }
      ],
      "stateMutability": "view",
      "type": "function",
      "constant": true
    },
    {
      "inputs": [
        {
          "internalType": "uint256",
          "name": "",
          "type": "uint256"
        }
      ],
      "name": "products",
      "outputs": [
        {
          "internalType": "uint256",
          "name": "id",
          "type": "uint256"
        },
        {
          "internalType": "string",
          "name": "name",
          "type": "string"
        },
        {
          "internalType": "uint256",
          "name": "quantity",
          "type": "uint256"
        },
        {
          "internalType": "string",
          "name": "organicCertification",
          "type": "string"
        },
        {
          "internalType": "string",
          "name": "geolocation",
          "type": "string"
        },
        {
          "internalType": "enum SupplyChainManagmentSmartContract.ProductStatus",
          "name": "status",
          "type": "uint8"
        },
        {
          "internalType": "uint256",
          "name": "harvestDate",
          "type": "uint256"
        }
      ],
      "stateMutability": "view",
      "type": "function",
      "constant": true
    },
    {
      "inputs": [],
      "name": "transactionId",
      "outputs": [
        {
          "internalType": "uint256",
          "name": "",
          "type": "uint256"
        }
      ],
      "stateMutability": "view",
      "type": "function",
      "constant": true
    },
    {
      "inputs": [
        {
          "internalType": "uint256",
          "name": "",
          "type": "uint256"
        }
      ],
      "name": "transactions",
      "outputs": [
        {
          "internalType": "uint256",
          "name": "id",
          "type": "uint256"
        },
        {
          "internalType": "uint256",
          "name": "productId",
          "type": "uint256"
        },
        {
          "internalType": "enum SupplyChainManagmentSmartContract.TransactionType",
          "name": "transactionType",
          "type": "uint8"
        },
        {
          "internalType": "uint256",
          "name": "timestamp",
          "type": "uint256"
        },
        {
          "internalType": "string",
          "name": "location",
          "type": "string"
        },
        {
          "internalType": "address",
          "name": "actorAddress",
          "type": "address"
        }
      ],
      "stateMutability": "view",
      "type": "function",
      "constant": true
    },
    {
      "inputs": [
        {
          "internalType": "string",
          "name": "_name",
          "type": "string"
        },
        {
          "internalType": "uint256",
          "name": "_quantity",
          "type": "uint256"
        },
        {
          "internalType": "string",
          "name": "_organicCertification",
          "type": "string"
        },
        {
          "internalType": "string",
          "name": "_geolocation",
          "type": "string"
        },
        {
          "internalType": "uint256",
          "name": "harvestDate",
          "type": "uint256"
        }
      ],
      "name": "registerProduct",
      "outputs": [
        {
          "internalType": "uint256",
          "name": "",
          "type": "uint256"
        }
      ],
      "stateMutability": "nonpayable",
      "type": "function"
    },
    {
      "inputs": [
        {
          "internalType": "uint256",
          "name": "_productId",
          "type": "uint256"
        }
      ],
      "name": "getProductById",
      "outputs": [
        {
          "components": [
            {
              "internalType": "uint256",
              "name": "id",
              "type": "uint256"
            },
            {
              "internalType": "string",
              "name": "name",
              "type": "string"
            },
            {
              "internalType": "uint256",
              "name": "quantity",
              "type": "uint256"
            },
            {
              "internalType": "string",
              "name": "organicCertification",
              "type": "string"
            },
            {
              "internalType": "string",
              "name": "geolocation",
              "type": "string"
            },
            {
              "internalType": "enum SupplyChainManagmentSmartContract.ProductStatus",
              "name": "status",
              "type": "uint8"
            },
            {
              "internalType": "uint256",
              "name": "harvestDate",
              "type": "uint256"
            }
          ],
          "internalType": "struct SupplyChainManagmentSmartContract.Product",
          "name": "",
          "type": "tuple"
        }
      ],
      "stateMutability": "view",
      "type": "function",
      "constant": true
    },
    {
      "inputs": [],
      "name": "getProducts",
      "outputs": [
        {
          "components": [
            {
              "internalType": "uint256",
              "name": "id",
              "type": "uint256"
            },
            {
              "internalType": "string",
              "name": "name",
              "type": "string"
            },
            {
              "internalType": "uint256",
              "name": "quantity",
              "type": "uint256"
            },
            {
              "internalType": "string",
              "name": "organicCertification",
              "type": "string"
            },
            {
              "internalType": "string",
              "name": "geolocation",
              "type": "string"
            },
            {
              "internalType": "enum SupplyChainManagmentSmartContract.ProductStatus",
              "name": "status",
              "type": "uint8"
            },
            {
              "internalType": "uint256",
              "name": "harvestDate",
              "type": "uint256"
            }
          ],
          "internalType": "struct SupplyChainManagmentSmartContract.Product[]",
          "name": "",
          "type": "tuple[]"
        }
      ],
      "stateMutability": "view",
      "type": "function",
      "constant": true
    },
    {
      "inputs": [
        {
          "internalType": "uint256",
          "name": "_productId",
          "type": "uint256"
        },
        {
          "internalType": "enum SupplyChainManagmentSmartContract.TransactionType",
          "name": "_transactionType",
          "type": "uint8"
        },
        {
          "internalType": "string",
          "name": "_location",
          "type": "string"
        }
      ],
      "name": "recordTransaction",
      "outputs": [],
      "stateMutability": "nonpayable",
      "type": "function"
    },
    {
      "inputs": [
        {
          "internalType": "uint256",
          "name": "_productId",
          "type": "uint256"
        },
        {
          "internalType": "uint256",
          "name": "_moistureContent",
          "type": "uint256"
        },
        {
          "internalType": "uint256",
          "name": "_beanSize",
          "type": "uint256"
        }
      ],
      "name": "recordQualityCheck",
      "outputs": [],
      "stateMutability": "nonpayable",
      "type": "function"
    },
    {
      "inputs": [
        {
          "internalType": "address",
          "name": "buyer",
          "type": "address"
        },
        {
          "internalType": "uint256",
          "name": "amount",
          "type": "uint256"
        }
      ],
      "name": "createEscrow",
      "outputs": [
        {
          "internalType": "uint256",
          "name": "",
          "type": "uint256"
        }
      ],
      "stateMutability": "payable",
      "type": "function",
      "payable": true
    },
    {
      "inputs": [
        {
          "internalType": "uint256",
          "name": "_escrowId",
          "type": "uint256"
        }
      ],
      "name": "releaseEscrow",
      "outputs": [],
      "stateMutability": "nonpayable",
      "type": "function"
    }
  ],
  "bytecode": "0x60806040525f6005555f6006555f6009553480156200001c575f80fd5b50604051620025003803806200250083398181016040528101906200004291906200008b565b805f8190555050620000bb565b5f80fd5b5f819050919050565b620000678162000053565b811462000072575f80fd5b50565b5f8151905062000085816200005c565b92915050565b5f60208284031215620000a357620000a26200004f565b5b5f620000b28482850162000075565b91505092915050565b61243780620000c95f395ff3fe6080604052600436106100fd575f3560e01c80638a2c571611610094578063c29b2f2011610063578063c29b2f201461037a578063c5ce3911146103a4578063c9dcd33d146103ce578063e0f6ef871461040a578063ed65316414610434576100fd565b80638a2c5716146102aa57806393c0e83a146102d25780639ace38c21461030f578063a0a8e46014610350576100fd565b806351abc1db116100d057806351abc1db146101ec5780635753d989146102145780637acc0b201461023e5780637e2f42e714610280576100fd565b8063012f52ee14610101578063301ab600146101405780633f70c2b4146101805780634614874e146101bc575b5f80fd5b34801561010c575f80fd5b5061012760048036038101906101229190611500565b61045c565b6040516101379493929190611593565b60405180910390f35b34801561014b575f80fd5b50610166600480360381019061016191906115d6565b6104d2565b604051610177959493929190611614565b60405180910390f35b34801561018b575f80fd5b506101a660048036038101906101a19190611500565b61051e565b6040516101b39190611818565b60405180910390f35b6101d660048036038101906101d19190611862565b610750565b6040516101e391906118a0565b60405180910390f35b3480156101f7575f80fd5b50610212600480360381019061020d9190611a08565b6108de565b005b34801561021f575f80fd5b50610228610a94565b60405161023591906118a0565b60405180910390f35b348015610249575f80fd5b50610264600480360381019061025f9190611500565b610a9a565b6040516102779796959493929190611acb565b60405180910390f35b34801561028b575f80fd5b50610294610c76565b6040516102a191906118a0565b60405180910390f35b3480156102b5575f80fd5b506102d060048036038101906102cb9190611b4d565b610c7c565b005b3480156102dd575f80fd5b506102f860048036038101906102f39190611500565b610d2c565b604051610306929190611b9d565b60405180910390f35b34801561031a575f80fd5b5061033560048036038101906103309190611500565b610e00565b60405161034796959493929190611c11565b60405180910390f35b34801561035b575f80fd5b50610364610ee9565b60405161037191906118a0565b60405180910390f35b348015610385575f80fd5b5061038e610eee565b60405161039b9190611dd9565b60405180910390f35b3480156103af575f80fd5b506103b86111b1565b6040516103c591906118a0565b60405180910390f35b3480156103d9575f80fd5b506103f460048036038101906103ef9190611df9565b6111b7565b60405161040191906118a0565b60405180910390f35b348015610415575f80fd5b5061041e6112ea565b60405161042b91906118a0565b60405180910390f35b34801561043f575f80fd5b5061045a60048036038101906104559190611500565b6112f0565b005b6008602052805f5260405f205f91509050805f015f9054906101000a900473ffffffffffffffffffffffffffffffffffffffff1690806001015f9054906101000a900473ffffffffffffffffffffffffffffffffffffffff1690806002015490806003015f9054906101000a900460ff16905084565b6007602052815f5260405f2081815481106104eb575f80fd5b905f5260205f2090600502015f9150915050805f0154908060010154908060020154908060030154908060040154905085565b610526611471565b60025f8381526020019081526020015f206040518060e00160405290815f820154815260200160018201805461055b90611ef1565b80601f016020809104026020016040519081016040528092919081815260200182805461058790611ef1565b80156105d25780601f106105a9576101008083540402835291602001916105d2565b820191905f5260205f20905b8154815290600101906020018083116105b557829003601f168201915b50505050508152602001600282015481526020016003820180546105f590611ef1565b80601f016020809104026020016040519081016040528092919081815260200182805461062190611ef1565b801561066c5780601f106106435761010080835404028352916020019161066c565b820191905f5260205f20905b81548152906001019060200180831161064f57829003601f168201915b5050505050815260200160048201805461068590611ef1565b80601f01602080910402602001604051908101604052809291908181526020018280546106b190611ef1565b80156106fc5780601f106106d3576101008083540402835291602001916106fc565b820191905f5260205f20905b8154815290600101906020018083116106df57829003601f168201915b50505050508152602001600582015f9054906101000a900460ff166004811115610729576107286116fe565b5b600481111561073b5761073a6116fe565b5b81526020016006820154815250509050919050565b5f813414610793576040517f08c379a000000000000000000000000000000000000000000000000000000000815260040161078a90611f6b565b60405180910390fd5b5f60405180608001604052808573ffffffffffffffffffffffffffffffffffffffff1681526020013373ffffffffffffffffffffffffffffffffffffffff1681526020018481526020015f151581525090508060085f60095481526020019081526020015f205f820151815f015f6101000a81548173ffffffffffffffffffffffffffffffffffffffff021916908373ffffffffffffffffffffffffffffffffffffffff1602179055506020820151816001015f6101000a81548173ffffffffffffffffffffffffffffffffffffffff021916908373ffffffffffffffffffffffffffffffffffffffff160217905550604082015181600201556060820151816003015f6101000a81548160ff02191690831515021790555090505060095f8154809291906108c190611fb6565b919050555060016009546108d59190611ffd565b91505092915050565b6004808111156108f1576108f06116fe565b5b60025f8581526020019081526020015f206005015f9054906101000a900460ff166004811115610924576109236116fe565b5b03610964576040517f08c379a000000000000000000000000000000000000000000000000000000000815260040161095b9061207a565b60405180910390fd5b6040518060c0016040528060065481526020018481526020018360048111156109905761098f6116fe565b5b81526020014281526020018281526020013373ffffffffffffffffffffffffffffffffffffffff1681525060035f60065481526020019081526020015f205f820151815f0155602082015181600101556040820151816002015f6101000a81548160ff02191690836004811115610a0a57610a096116fe565b5b0217905550606082015181600301556080820151816004019081610a2e9190612235565b5060a0820151816005015f6101000a81548173ffffffffffffffffffffffffffffffffffffffff021916908373ffffffffffffffffffffffffffffffffffffffff16021790555090505060065f815480929190610a8a90611fb6565b9190505550505050565b60095481565b6002602052805f5260405f205f91509050805f015490806001018054610abf90611ef1565b80601f0160208091040260200160405190810160405280929190818152602001828054610aeb90611ef1565b8015610b365780601f10610b0d57610100808354040283529160200191610b36565b820191905f5260205f20905b815481529060010190602001808311610b1957829003601f168201915b505050505090806002015490806003018054610b5190611ef1565b80601f0160208091040260200160405190810160405280929190818152602001828054610b7d90611ef1565b8015610bc85780601f10610b9f57610100808354040283529160200191610bc8565b820191905f5260205f20905b815481529060010190602001808311610bab57829003601f168201915b505050505090806004018054610bdd90611ef1565b80601f0160208091040260200160405190810160405280929190818152602001828054610c0990611ef1565b8015610c545780601f10610c2b57610100808354040283529160200191610c54565b820191905f5260205f20905b815481529060010190602001808311610c3757829003601f168201915b505050505090806005015f9054906101000a900460ff16908060060154905087565b60065481565b5f6040518060a0016040528060075f8781526020019081526020015f2080549050815260200185815260200142815260200184815260200183815250905060075f60055481526020019081526020015f2081908060018154018082558091505060019003905f5260205f2090600502015f909190919091505f820151815f015560208201518160010155604082015181600201556060820151816003015560808201518160040155505050505050565b60048181548110610d3b575f80fd5b905f5260205f2090600202015f91509050805f015f9054906101000a900473ffffffffffffffffffffffffffffffffffffffff1690806001018054610d7f90611ef1565b80601f0160208091040260200160405190810160405280929190818152602001828054610dab90611ef1565b8015610df65780601f10610dcd57610100808354040283529160200191610df6565b820191905f5260205f20905b815481529060010190602001808311610dd957829003601f168201915b5050505050905082565b6003602052805f5260405f205f91509050805f015490806001015490806002015f9054906101000a900460ff1690806003015490806004018054610e4390611ef1565b80601f0160208091040260200160405190810160405280929190818152602001828054610e6f90611ef1565b8015610eba5780601f10610e9157610100808354040283529160200191610eba565b820191905f5260205f20905b815481529060010190602001808311610e9d57829003601f168201915b505050505090806005015f9054906101000a900473ffffffffffffffffffffffffffffffffffffffff16905086565b5f5481565b60605f60015467ffffffffffffffff811115610f0d57610f0c6118e4565b5b604051908082528060200260200182016040528015610f4657816020015b610f33611471565b815260200190600190039081610f2b5790505b5090505f5b6001548110156111a95760025f8281526020019081526020015f206040518060e00160405290815f8201548152602001600182018054610f8a90611ef1565b80601f0160208091040260200160405190810160405280929190818152602001828054610fb690611ef1565b80156110015780601f10610fd857610100808354040283529160200191611001565b820191905f5260205f20905b815481529060010190602001808311610fe457829003601f168201915b505050505081526020016002820154815260200160038201805461102490611ef1565b80601f016020809104026020016040519081016040528092919081815260200182805461105090611ef1565b801561109b5780601f106110725761010080835404028352916020019161109b565b820191905f5260205f20905b81548152906001019060200180831161107e57829003601f168201915b505050505081526020016004820180546110b490611ef1565b80601f01602080910402602001604051908101604052809291908181526020018280546110e090611ef1565b801561112b5780601f106111025761010080835404028352916020019161112b565b820191905f5260205f20905b81548152906001019060200180831161110e57829003601f168201915b50505050508152602001600582015f9054906101000a900460ff166004811115611158576111576116fe565b5b600481111561116a576111696116fe565b5b815260200160068201548152505082828151811061118b5761118a612304565b5b602002602001018190525080806111a190611fb6565b915050610f4b565b508091505090565b60055481565b5f6040518060e0016040528060055481526020018781526020018681526020018581526020018481526020015f60048111156111f6576111f56116fe565b5b81526020018381525060025f60055481526020019081526020015f205f820151815f0155602082015181600101908161122f9190612235565b5060408201518160020155606082015181600301908161124f9190612235565b5060808201518160040190816112659190612235565b5060a0820151816005015f6101000a81548160ff021916908360048111156112905761128f6116fe565b5b021790555060c0820151816006015590505060055f8154809291906112b490611fb6565b919050555060015f8154809291906112cb90611fb6565b919050555060016005546112df9190611ffd565b905095945050505050565b60015481565b5f60085f8381526020019081526020015f2090503373ffffffffffffffffffffffffffffffffffffffff16816001015f9054906101000a900473ffffffffffffffffffffffffffffffffffffffff1673ffffffffffffffffffffffffffffffffffffffff1614611395576040517f08c379a000000000000000000000000000000000000000000000000000000000815260040161138c9061237b565b60405180910390fd5b806003015f9054906101000a900460ff16156113e6576040517f08c379a00000000000000000000000000000000000000000000000000000000081526004016113dd906123e3565b60405180910390fd5b806001015f9054906101000a900473ffffffffffffffffffffffffffffffffffffffff1673ffffffffffffffffffffffffffffffffffffffff166108fc826002015490811502906040515f60405180830381858888f19350505050158015611450573d5f803e3d5ffd5b506001816003015f6101000a81548160ff0219169083151502179055505050565b6040518060e001604052805f8152602001606081526020015f815260200160608152602001606081526020015f60048111156114b0576114af6116fe565b5b81526020015f81525090565b5f604051905090565b5f80fd5b5f80fd5b5f819050919050565b6114df816114cd565b81146114e9575f80fd5b50565b5f813590506114fa816114d6565b92915050565b5f60208284031215611515576115146114c5565b5b5f611522848285016114ec565b91505092915050565b5f73ffffffffffffffffffffffffffffffffffffffff82169050919050565b5f6115548261152b565b9050919050565b6115648161154a565b82525050565b611573816114cd565b82525050565b5f8115159050919050565b61158d81611579565b82525050565b5f6080820190506115a65f83018761155b565b6115b3602083018661155b565b6115c0604083018561156a565b6115cd6060830184611584565b95945050505050565b5f80604083850312156115ec576115eb6114c5565b5b5f6115f9858286016114ec565b925050602061160a858286016114ec565b9150509250929050565b5f60a0820190506116275f83018861156a565b611634602083018761156a565b611641604083018661156a565b61164e606083018561156a565b61165b608083018461156a565b9695505050505050565b61166e816114cd565b82525050565b5f81519050919050565b5f82825260208201905092915050565b5f5b838110156116ab578082015181840152602081019050611690565b5f8484015250505050565b5f601f19601f8301169050919050565b5f6116d082611674565b6116da818561167e565b93506116ea81856020860161168e565b6116f3816116b6565b840191505092915050565b7f4e487b71000000000000000000000000000000000000000000000000000000005f52602160045260245ffd5b6005811061173c5761173b6116fe565b5b50565b5f81905061174c8261172b565b919050565b5f61175b8261173f565b9050919050565b61176b81611751565b82525050565b5f60e083015f8301516117865f860182611665565b506020830151848203602086015261179e82826116c6565b91505060408301516117b36040860182611665565b50606083015184820360608601526117cb82826116c6565b915050608083015184820360808601526117e582826116c6565b91505060a08301516117fa60a0860182611762565b5060c083015161180d60c0860182611665565b508091505092915050565b5f6020820190508181035f8301526118308184611771565b905092915050565b6118418161154a565b811461184b575f80fd5b50565b5f8135905061185c81611838565b92915050565b5f8060408385031215611878576118776114c5565b5b5f6118858582860161184e565b9250506020611896858286016114ec565b9150509250929050565b5f6020820190506118b35f83018461156a565b92915050565b600581106118c5575f80fd5b50565b5f813590506118d6816118b9565b92915050565b5f80fd5b5f80fd5b7f4e487b71000000000000000000000000000000000000000000000000000000005f52604160045260245ffd5b61191a826116b6565b810181811067ffffffffffffffff82111715611939576119386118e4565b5b80604052505050565b5f61194b6114bc565b90506119578282611911565b919050565b5f67ffffffffffffffff821115611976576119756118e4565b5b61197f826116b6565b9050602081019050919050565b828183375f83830152505050565b5f6119ac6119a78461195c565b611942565b9050828152602081018484840111156119c8576119c76118e0565b5b6119d384828561198c565b509392505050565b5f82601f8301126119ef576119ee6118dc565b5b81356119ff84826020860161199a565b91505092915050565b5f805f60608486031215611a1f57611a1e6114c5565b5b5f611a2c868287016114ec565b9350506020611a3d868287016118c8565b925050604084013567ffffffffffffffff811115611a5e57611a5d6114c9565b5b611a6a868287016119db565b9150509250925092565b5f82825260208201905092915050565b5f611a8e82611674565b611a988185611a74565b9350611aa881856020860161168e565b611ab1816116b6565b840191505092915050565b611ac581611751565b82525050565b5f60e082019050611ade5f83018a61156a565b8181036020830152611af08189611a84565b9050611aff604083018861156a565b8181036060830152611b118187611a84565b90508181036080830152611b258186611a84565b9050611b3460a0830185611abc565b611b4160c083018461156a565b98975050505050505050565b5f805f60608486031215611b6457611b636114c5565b5b5f611b71868287016114ec565b9350506020611b82868287016114ec565b9250506040611b93868287016114ec565b9150509250925092565b5f604082019050611bb05f83018561155b565b8181036020830152611bc28184611a84565b90509392505050565b60058110611bdc57611bdb6116fe565b5b50565b5f819050611bec82611bcb565b919050565b5f611bfb82611bdf565b9050919050565b611c0b81611bf1565b82525050565b5f60c082019050611c245f83018961156a565b611c31602083018861156a565b611c3e6040830187611c02565b611c4b606083018661156a565b8181036080830152611c5d8185611a84565b9050611c6c60a083018461155b565b979650505050505050565b5f81519050919050565b5f82825260208201905092915050565b5f819050602082019050919050565b5f60e083015f830151611cb55f860182611665565b5060208301518482036020860152611ccd82826116c6565b9150506040830151611ce26040860182611665565b5060608301518482036060860152611cfa82826116c6565b91505060808301518482036080860152611d1482826116c6565b91505060a0830151611d2960a0860182611762565b5060c0830151611d3c60c0860182611665565b508091505092915050565b5f611d528383611ca0565b905092915050565b5f602082019050919050565b5f611d7082611c77565b611d7a8185611c81565b935083602082028501611d8c85611c91565b805f5b85811015611dc75784840389528151611da88582611d47565b9450611db383611d5a565b925060208a01995050600181019050611d8f565b50829750879550505050505092915050565b5f6020820190508181035f830152611df18184611d66565b905092915050565b5f805f805f60a08688031215611e1257611e116114c5565b5b5f86013567ffffffffffffffff811115611e2f57611e2e6114c9565b5b611e3b888289016119db565b9550506020611e4c888289016114ec565b945050604086013567ffffffffffffffff811115611e6d57611e6c6114c9565b5b611e79888289016119db565b935050606086013567ffffffffffffffff811115611e9a57611e996114c9565b5b611ea6888289016119db565b9250506080611eb7888289016114ec565b9150509295509295909350565b7f4e487b71000000000000000000000000000000000000000000000000000000005f52602260045260245ffd5b5f6002820490506001821680611f0857607f821691505b602082108103611f1b57611f1a611ec4565b5b50919050565b7f496e73756666696369656e742066756e647300000000000000000000000000005f82015250565b5f611f55601283611a74565b9150611f6082611f21565b602082019050919050565b5f6020820190508181035f830152611f8281611f49565b9050919050565b7f4e487b71000000000000000000000000000000000000000000000000000000005f52601160045260245ffd5b5f611fc0826114cd565b91507fffffffffffffffffffffffffffffffffffffffffffffffffffffffffffffffff8203611ff257611ff1611f89565b5b600182019050919050565b5f612007826114cd565b9150612012836114cd565b925082820390508181111561202a57612029611f89565b5b92915050565b7f50726f6475637420697320616c7265616479206f6e2073616c650000000000005f82015250565b5f612064601a83611a74565b915061206f82612030565b602082019050919050565b5f6020820190508181035f83015261209181612058565b9050919050565b5f819050815f5260205f209050919050565b5f6020601f8301049050919050565b5f82821b905092915050565b5f600883026120f47fffffffffffffffffffffffffffffffffffffffffffffffffffffffffffffffff826120b9565b6120fe86836120b9565b95508019841693508086168417925050509392505050565b5f819050919050565b5f61213961213461212f846114cd565b612116565b6114cd565b9050919050565b5f819050919050565b6121528361211f565b61216661215e82612140565b8484546120c5565b825550505050565b5f90565b61217a61216e565b612185818484612149565b505050565b5b818110156121a85761219d5f82612172565b60018101905061218b565b5050565b601f8211156121ed576121be81612098565b6121c7846120aa565b810160208510156121d6578190505b6121ea6121e2856120aa565b83018261218a565b50505b505050565b5f82821c905092915050565b5f61220d5f19846008026121f2565b1980831691505092915050565b5f61222583836121fe565b9150826002028217905092915050565b61223e82611674565b67ffffffffffffffff811115612257576122566118e4565b5b6122618254611ef1565b61226c8282856121ac565b5f60209050601f83116001811461229d575f841561228b578287015190505b612295858261221a565b8655506122fc565b601f1984166122ab86612098565b5f5b828110156122d2578489015182556001820191506020850194506020810190506122ad565b868310156122ef57848901516122eb601f8916826121fe565b8355505b6001600288020188555050505b505050505050565b7f4e487b71000000000000000000000000000000000000000000000000000000005f52603260045260245ffd5b7f4f6e6c792073656c6c65722063616e2072656c6561736520657363726f7700005f82015250565b5f612365601e83611a74565b915061237082612331565b602082019050919050565b5f6020820190508181035f83015261239281612359565b9050919050565b7f457363726f7720616c72656164792072656c65617365640000000000000000005f82015250565b5f6123cd601783611a74565b91506123d882612399565b602082019050919050565b5f6020820190508181035f8301526123fa816123c1565b905091905056fea26469706673582212200fba7fa16870f4bba72502479cb6c2ac9b9dde8cfab5959e06976997aa7f84fb64736f6c63430008150033",
  "immutableReferences": {},
  "source": "// SPDX-License-Identifier: MIT\r\npragma solidity ^0.8.0;\r\n\r\ncontract SupplyChainManagmentSmartContract {\r\n    uint public contractVersion;\r\n    uint256 public productCount;\r\n\r\n    constructor(uint _contractVersion) {\r\n        contractVersion = _contractVersion;\r\n    }\r\n\r\n    struct Product {\r\n        uint256 id;\r\n        string name;\r\n        uint256 quantity;\r\n        string organicCertification;\r\n        string geolocation;\r\n        ProductStatus status;\r\n        uint256 harvestDate;\r\n    }\r\n\r\n    struct Transaction {\r\n        uint256 id;\r\n        uint256 productId;\r\n        TransactionType transactionType;\r\n        uint256 timestamp;\r\n        string location;\r\n        address actorAddress; // Address of the actor involved in the transaction\r\n    }\r\n\r\n    struct Actor {\r\n        address actorAddress;\r\n        string role;\r\n    }\r\n\r\n    mapping(uint256 => Product) public products;\r\n    mapping(uint256 => Transaction) public transactions;\r\n    Actor[] public actors;\r\n\r\n    enum TransactionType {\r\n        Harvest,\r\n        Transport,\r\n        Roast,\r\n        Package,\r\n        Retail\r\n    }\r\n\r\n    enum ProductStatus {\r\n        InFarm,\r\n        InTransit,\r\n        Roasted,\r\n        Packaged,\r\n        OnSale\r\n    }\r\n\r\n    enum ActorRole {\r\n        Farmer,\r\n        Transporter,\r\n        Roaster,\r\n        Retailer\r\n    }\r\n\r\n    uint256 public productId = 0;\r\n    function registerProduct(\r\n        string memory _name,\r\n        uint256 _quantity,\r\n        string memory _organicCertification,\r\n        string memory _geolocation,\r\n        uint256 harvestDate\r\n    ) public returns (uint256) {\r\n        products[productId] = Product({\r\n            id: productId,\r\n            name: _name,\r\n            quantity: _quantity,\r\n            organicCertification: _organicCertification,\r\n            geolocation: _geolocation,\r\n            status: ProductStatus.InFarm,\r\n            harvestDate: harvestDate\r\n        });\r\n\r\n        productId++;\r\n        productCount++;\r\n        return productId - 1; // Return the product ID\r\n    }\r\n\r\n    function getProductById(uint256 _productId) public view returns (Product memory) {\r\n        return products[_productId];\r\n    }\r\n\r\n    function getProducts() public view returns (Product[] memory) {\r\n        Product[] memory allProducts = new Product[](productCount);\r\n        for (uint256 i = 0; i < productCount; i++) {\r\n            allProducts[i] = products[i];\r\n        }\r\n        return allProducts;\r\n    }\r\n\r\n    uint256 public transactionId = 0;\r\n    function recordTransaction(\r\n    uint256 _productId,\r\n    TransactionType _transactionType,\r\n    string memory _location\r\n    ) public {\r\n        require(products[_productId].status != ProductStatus.OnSale, \"Product is already on sale\");\r\n\r\n        transactions[transactionId] = Transaction({\r\n            id: transactionId,\r\n            productId: _productId,\r\n            transactionType: _transactionType,\r\n            timestamp: block.timestamp,\r\n            location: _location,\r\n            actorAddress: msg.sender\r\n        });\r\n\r\n        transactionId++;\r\n    }\r\n\r\n    struct QualityCheck {\r\n        uint256 id;\r\n        uint256 productId;\r\n        uint256 timestamp;\r\n        uint256 moistureContent;\r\n        uint256 beanSize;\r\n    }\r\n\r\n    mapping(uint256 => QualityCheck[]) public productQualityChecks;\r\n\r\n    function recordQualityCheck(\r\n        uint256 _productId,\r\n        uint256 _moistureContent,\r\n        uint256 _beanSize\r\n    ) public {\r\n        QualityCheck memory newCheck = QualityCheck({\r\n            id: productQualityChecks[_productId].length,\r\n            productId: _productId,\r\n            timestamp: block.timestamp,\r\n            moistureContent: _moistureContent,\r\n            beanSize: _beanSize\r\n        });\r\n\r\n        productQualityChecks[productId].push(newCheck);\r\n    }\r\n\r\n    struct Escrow {\r\n        address buyer;\r\n        address seller;\r\n        uint256 amount;\r\n        bool isReleased;\r\n    }\r\n\r\n    mapping(uint256 => Escrow) public escrows;\r\n    uint256 public escrowId = 0;\r\n\r\n    function createEscrow(address buyer, uint256 amount) public payable returns (uint256) {\r\n        require(msg.value == amount, \"Insufficient funds\");\r\n\r\n        Escrow memory newEscrow = Escrow({\r\n            buyer: buyer,\r\n            seller: msg.sender,\r\n            amount: amount,\r\n            isReleased: false\r\n        });\r\n\r\n        escrows[escrowId] = newEscrow;\r\n        escrowId++;\r\n\r\n        return escrowId - 1;\r\n    }\r\n\r\n    function releaseEscrow(uint256 _escrowId) public {\r\n        Escrow storage escrow = escrows[_escrowId];\r\n        require(escrow.seller == msg.sender, \"Only seller can release escrow\");\r\n        require(!escrow.isReleased, \"Escrow already released\");\r\n\r\n        payable(escrow.seller).transfer(escrow.amount);\r\n        escrow.isReleased = true;\r\n    }\r\n}",
  "sourcePath": "C:\\Users\\stmih\\source\\repos\\Ethereum-Smart-Contracts\\contracts\\SupplyChainManagmentSmartContract.sol",
  "compiler": {
    "name": "solc",
    "version": "0.8.21+commit.d9974bed.Emscripten.clang"
  },
  "schemaVersion": "3.4.16",
  "updatedAt": "2024-07-29T15:28:10.680Z",
  "networkType": "ethereum",
  "devdoc": {
    "kind": "dev",
    "methods": {},
    "version": 1
  },
  "userdoc": {
    "kind": "user",
    "methods": {},
    "version": 1
  }
}